:040000009AEF04F07F
:08000800046ED8CF05F0E0CF33
:1000100006F00001E9CF0CF0EACF07F0E1CF08F0DD
:10002000E2CF09F0D9CF0AF0DACF0BF0F3CF12F01C
:10003000F4CF13F0FACF14F000C00EF001C00FF0AF
:1000400002C010F003C011F09DAA2AEF00F09EBA82
:100050005BEF00F00EC000F00FC001F010C002F026
:1000600011C003F00CC0E9FF07C0EAFF078E08C00B
:10007000E1FF09C0E2FF0AC0D9FF0BC0DAFF12C0DE
:10008000F3FF13C0F4FF14C0FAFF045006C0E0FFF2
:1000900005C0D8FF1000F2CF0DF0F29EF76AB00F46
:1000A000F66E000EF7220900F5500DBEF28E12001A
:1000B00078007F008600ABA204D0AB98AB88766B4B
:1000C00068D0ABA405D09EAAFED7AE50766B61D0A7
:1000D0009EAAFED7AECF9CF076510BE0010A0FE04E
:1000E000030A1BE0010A21E0070A27E0010A2EE0CB
:1000F0004FD09C51240802E1010E766F4AD09C51EA
:100100004D0803E1020E766F07D09C51240803E1ED
:10011000010E766F01D0766B3CD09C512A0803E12A
:10012000030E766F01D0766B34D09C51410803E109
:10013000040E766F01D0766B2CD09C512A0804E116
:10014000776B050E766F01D0766B23D09C51230818
:100150000BE1036A7751230FE96E000E0320EA6E6C
:10016000EF6A1D2A766B13D09C51240803E1010E1F
:10017000766F0DD0775130080AE37751772B036AF9
:10018000230FE96E000E0320EA6E9CC0EFFF01D042
:10019000766B9E9A2AEF00F023C064F025C055F0DC
:1001A00029C06CF02AC06DF02BC06EF02CC06FF02F
:1001B0002DC070F02EC071F02FC072F030C073F0FF
:1001C000746B32C065F034C056F036C066F038C08B
:1001D00057F03AC067F03CC058F03EC068F040C0ED
:1001E00059F042C069F044C05AF046C06AF048C0B5
:1001F0005BF04AC06BF04CC05CF04FEF01F00900BF
:10020000F6CFA8F0F7CFA9F0F5509EA8FED7AD6EB7
:10021000A8C0F6FFA9C0F7FFA72FF1D71200EF5231
:1002200010E0EACFA0F0E9CF9FF0EF509EA8FED7F4
:10023000AD6EA0C0EAFF9FC0E9FFE92AD8B4EA2A60
:10024000EED772EF01F0EA6AA80EE96EEF500DE00A
:10025000060E016E006A002EFED7012EFBD77B0E24
:10026000006E002EFED7EF2EF3D71200740E7D6FB6
:10027000020E7E6F1D50000803E3788169EF05F0E0
:100280001D0678918C0E7D6F020E7E6F1E50000849
:1002900003E3788169EF05F01E0678917DD71E2A69
:1002A000A80E7D6F020E7E6F2050000803E3788158
:1002B00069EF05F0200678914C0EF66E060EF76E8B
:1002C0000D0EA76F9CDF410E9EA8FED7AD6E5B0E94
:1002D000F66E060EF76E060EA76F91DFEA6A6C0ED9
:1002E000E96E9DD70D0E9EA8FED7AD6E0A0E9EA894
:1002F000FED7AD6E660EF66E060EF76E030EA76F96
:100300007EDF64519EA8FED7AD6E6B0EF66E060EB4
:10031000F76E030EA76F73DF55509EA8FED7AD6E24
:10032000700EF66E060EF76E050EA76F68DF65514C
:100330009EA8FED7AD6E770EF66E060EF76E030E14
:10034000A76F5DDF56509EA8FED7AD6E7C0EF66E91
:10035000060EF76E050EA76F52DF66519EA8FED7F8
:10036000AD6E830EF66E060EF76E030EA76F47DFB7
:1003700057509EA8FED7AD6E880EF66E060EF76E2D
:10038000050EA76F3CDF67519EA8FED7AD6E8F0E9E
:10039000F66E060EF76E030EA76F31DF58509EA85B
:1003A000FED7AD6E0D0E9EA8FED7AD6E0A0E9EA8AE
:1003B000FED7AD6E980EF66E060EF76E030EA76FA3
:1003C0001EDF68519EA8FED7AD6E9D0EF66E060E1E
:1003D000F76E030EA76F13DF59509EA8FED7AD6EC0
:1003E000A20EF66E060EF76E050EA76F08DF6951B6
:1003F0009EA8FED7AD6EA90EF66E060EF76E030E22
:10040000A76FFDDE5A509EA8FED7AD6EAE0EF66EFB
:10041000060EF76E050EA76FF2DE6A519EA8FED794
:10042000AD6EB50EF66E060EF76E030EA76FE7DE25
:100430005B509EA8FED7AD6EBA0EF66E060EF76E36
:10044000050EA76FDCDE6B519EA8FED7AD6EC10E08
:10045000F66E060EF76E030EA76FD1DE5C509EA8F7
:10046000FED7AD6E0D0E9EA8FED7AD6E0A0E9EA8ED
:10047000FED7AD6E202A7E0E7D6F040E7E6F1F505C
:10048000000803E3788169EF05F01F067891645155
:10049000310817E162B10DD0555031080AE193904F
:1004A0008A806281080E9F6FFA0EA86FCCDE9F2FA4
:1004B000FBD762A106D05550300803E193908A9093
:1004C00062916551320817E162B30DD05650310880
:1004D0000AE193928A826283080E9F6FFA0EA86FD8
:1004E000B2DE9F2FFBD762A306D05650300803E13F
:1004F00093928A9262936651330817E162B50DD0E8
:10050000575031080AE193948A846285080E9F6FE0
:10051000FA0EA86F98DE9F2FFBD762A506D0575022
:10052000300803E193948A9462956751340817E187
:1005300062B70DD0585031080AE193968A866287D7
:10054000080E9F6FFA0EA86F7EDE9F2FFBD762A763
:1005500006D05850300803E193968A966297685106
:10056000350817E162B90DD0595031080AE1939866
:100570008A886289080E9F6FFA0EA86F64DE9F2F2B
:10058000FBD762A906D05950300803E193988A98A6
:1005900062996951360817E162BB0DD05A50310893
:1005A0000AE1939A8A8A628B080E9F6FFA0EA86FEF
:1005B0004ADE9F2FFBD762AB06D05A50300803E1CA
:1005C000939A8A9A629B6A51370817E162BD0DD0EF
:1005D0005B5031080AE1939C8A8C628D080E9F6FF4
:1005E000FA0EA86F30DE9F2FFBD762AD06D05B50AE
:1005F000300803E1939C8A9C629D6B51380817E197
:1006000062BF0DD05C5031080AE1939E8A8E628FE2
:10061000080E9F6FFA0EA86F16DE9F2FFBD762AFF2
:1006200006D05C50300803E1939E8A9E629F1F2A89
:1006300063813E0E7D6F060E7E6F68EF05F06C0ED7
:100640007D6F020E7E6F68EF05F012000D0A5B529F
:10065000585D20536C6176653A25632054696D6559
:100660003A25730D0A0056313A256320533A256323
:10067000202056323A256320533A256320205633F2
:100680003A256320533A2563202056343A256320C7
:10069000533A25630D0A000056353A256320533A34
:1006A0002563202056363A256320533A25632020BF
:1006B00056373A256320533A2563202056383A2589
:1006C0006320533A25630D0A000063B107D0DA0EA8
:1006D000846F060E856F68EF05F09DD06391E60E7E
:1006E000846F060E856F1F50000803E37F8169EF5A
:1006F00005F01F067F9155C09FF056C0A0F057C06F
:10070000A1F058C0A2F059C0A3F05AC0A4F05BC039
:10071000A5F05CC0A6F01F2A200E846F070E856F1F
:100720002050000803E37F8169EF05F020067F91E8
:1007300094968B86240E9EA8FED7AD6E410E9EA881
:10074000FED7AD6E270EF66E080EF76E030EA76F7E
:1007500056DD9F519EA8FED7AD6E2C0EF66E080E8C
:10076000F76E030EA76F4BDDA0519EA8FED7AD6EAE
:10077000310EF66E080EF76E030EA76F40DDA15125
:100780009EA8FED7AD6E360EF66E080EF76E030EFF
:10079000A76F35DDA2519EA8FED7AD6E3B0EF66E5B
:1007A000080EF76E030EA76F2ADDA3519EA8FED791
:1007B000AD6E400EF66E080EF76E030EA76F1FDDCE
:1007C000A4519EA8FED7AD6E450EF66E080EF76ECC
:1007D000030EA76F14DDA5519EA8FED7AD6E4A0E7D
:1007E000F66E080EF76E030EA76F09DDA6519EA8E0
:1007F000FED7AD6E4F0EF66E080EF76E030EA76FA6
:10080000FEDC202A020EA76FFA0EA86F1CDDA72FB0
:10081000FBD794968B96CA0E846F060E856F68EF91
:1008200005F012002425632C312C25632C322C2555
:10083000632C332C25632C342C25632C352C256319
:100840002C362C25632C372C25632C382C25632340
:100850000D0A0000752B7551630807E3680E8B6F56
:10086000080E8C6F68EF05F05ED0756B740E8B6FA1
:10087000080E8C6F2150000803E3868169EF05F0B4
:10088000210686915F2A5F503B084CE25F6A5E2A30
:10089000602B60510A0801E2606B612B61510A080C
:1008A00001E2616BAC0E8B6F080E8C6F225000085A
:1008B00003E3868169EF05F022068691F250006E0F
:1008C000F29E280EA96E5DC0A8FFA69CA69EA684D7
:1008D0000F01550EA76EAA0EA76EA682A6B2FED76E
:1008E000A6940050F212F2CF00F0F29E290EA96EEB
:1008F0005EC0A8FFA69CA69EA684550EA76EAA0E53
:10090000A76EA682A6B2FED7A6940050F212222AA3
:100910005E503B0802E25E6A5D2A5D50170801E204
:100920005D6A0001212A540E8B6F080E8C6F68EFF0
:1009300005F01200F86AD09E078EB886080EAF6EDA
:10094000020EB06EA60EAC6E900EAB6E1D6A010E5E
:100950001E6E1F6E206E216E226E300E556E566E0C
:10096000576E586E596E5A6E5B6E5C6E5D6A5E6A4B
:100970005F6A606B616B6291629362956297629944
:10098000629B629D629F6391756B766B776BC150C2
:10099000F00BC16E000E0F01386F396F3A6F776A36
:1009A000786A796A166A176A936A8A6AFF0E926E83
:1009B000CF0E936EB80E946E93908A9093928A9213
:1009C00093948A9493968A9693988A98939A8A9AFB
:1009D000939C8A9C939E8A9E94968B96F2CF8DF0E0
:1009E000F29E280EA96EA69CA69EA680A850000185
:1009F0008DBFF28E5D6EF2CF8DF0F29E290EA96E44
:100A0000A69CA69EA680A8508DBFF28E5E6E5F6AE1
:100A10005D50170801E25D6A5E503B0801E25E6AC4
:100A20009D8AC00EF212786B7A6B010E796F7C6B27
:100A30007B6B6C0E7D6F020E7E6F7F6B816B010E88
:100A4000806F836B826BCA0E846F060E856F866B18
:100A5000886B010E876F8A6B896B540E8B6F080E43
:100A60008C6F1C6A050ECD6ECC6A3C0ECF6EB00E3C
:100A7000CE6E9E90D8901C34006E4BEC00F0026E4F
:100A8000010E00244BEC00F0036E03C0EAFF02C02D
:100A9000E9FFEFCF02F0E92AEFCF00F0ECCF01F051
:100AA000EC2AEFCF03F002E1EC2AED52EC50015CAE
:100AB00010E10050035C0DE1ED52EE6AEF6A02BEF8
:100AC00008D0EC52ECCFFAFFED52EFCFE8FFF96E11
:100AD00000011C2A030E1C5CCDE11C6A9EB0C5D728
:060AE000FDD71C680300B5
:020000040030CA
:0E00000000E2183C00BD81000FC00FE00F4071
:00000001FF
;PIC18F25K22
;CRC=7040  CREATED="05-Mar-26 10:54"
