:04000000D2EF03F048
:08000800046ED8CF05F0E0CF33
:1000100006F00001E9CF0CF0EACF07F0E1CF08F0DD
:10002000E2CF09F0D9CF0AF0DACF0BF0F3CF12F01C
:10003000F4CF13F0FACF14F000C00EF001C00FF0AF
:1000400002C010F003C011F09DA02AEF00F09EB096
:1000500051EF00F09DAA30EF00F09EBAAEEF00F035
:100060000EC000F00FC001F010C002F011C003F08C
:100070000CC0E9FF07C0EAFF078E08C0E1FF09C016
:10008000E2FF0AC0D9FF0BC0DAFF12C0F3FF13C0B2
:10009000F4FF14C0FAFF045006C0E0FF05C0D8FF0B
:1000A00010007B2B850ECF6EEE0ECE6E7B511308AB
:1000B00052E27C2B7B6B7C513A084DE27C6B7D2BB2
:1000C000802B80510A0801E2806B812B81510A0844
:1000D00001E2816B280E8225876F000E8321886FD5
:1000E000F250006EF29E87C0A9FF7EC0A8FFA69CBA
:1000F000A69EA6840F01550EA76EAA0EA76EA68215
:10010000A6B2FED7A6940050F212290E0001822555
:10011000876F000E8321886FF250006EF29E87C0B9
:10012000A9FF7DC0A8FFA69CA69EA6840F01550E20
:10013000A76EAA0EA76EA682A6B2FED7A6940050FE
:10014000F21200017D513A0802E27D6B7E2B7E5156
:10015000170801E27E6B9E9030EF00F0ABA203D057
:10016000AB98AB8844D0ABA404D09EAAFED7AE50C7
:100170003ED09EAAFED7AECF87F087512408D8A4E0
:1001800036D09EAAFED7AECF88F088514D08D8A4AD
:100190002ED09EAAFED7AE509EAAFED7AECF89F033
:1001A00089514108D8A423D09EAAFED7AE508A6BAD
:1001B0008A51300813E39EAAFED7AECF8BF08B5145
:1001C0002308D8B40BD0036A8A51340FE96E000EAD
:1001D0000320EA6E8BC0EFFF8A2BEAD7036A8A51AD
:1001E000340FE96E000E0320EA6EEF6A31849E9AA6
:1001F00030EF00F0F2CF0DF0F29EF76A0E0FF66EC0
:10020000020EF7220900F5500DBEF28E12002400F6
:1002100012000D0A3D3D3D2050617273656420500F
:1002200061636B6574203D3D3D0D0A00536C617642
:100230006549443A2025630D0A0054696D65202004
:10024000203A2025730D0A0056313A2025632020DC
:100250005374617465313A2025630D0A00005632EB
:100260003A20256320205374617465323A20256357
:100270000D0A000056333A20256320205374617420
:1002800065333A2025630D0A000056343A20256371
:1002900020205374617465343A2025630D0A0000F0
:1002A00056353A20256320205374617465353A2011
:1002B00025630D0A000056363A202563202053742A
:1002C000617465363A2025630D0A000056373A20DE
:1002D000256320205374617465373A2025630D0A25
:1002E000000056383A202563202053746174653825
:1002F0003A2025630D0A00003D3D3D3D3D3D3D3D1D
:100300003D3D3D3D3D3D3D3D3D3D3D3D3D0D0A00BD
:10031000370ECD6ECC6A850ECF6EEE0ECE6E9D8002
:1003200018EF04F00900F5520DE0F6CF84F0F7CF96
:1003300085F0F5509EA8FED7AD6E84C0F6FF85C04F
:10034000F7FFF0D712000900F6CF85F0F7CF86F05F
:10035000F5509EA8FED7AD6E85C0F6FF86C0F7FFAC
:10036000842FF1D71200EF5210E0EACF85F0E9CFE9
:1003700084F0EF509EA8FED7AD6E85C0EAFF84C022
:10038000E9FFE92AD8B4EA2AEED71BEF02F034C01D
:1003900070F036C029F03AC067F03BC068F03CC04E
:1003A00069F03DC06AF03EC06BF03FC06CF040C0E9
:1003B0006DF041C06EF06F6B43C071F045C02AF024
:1003C00047C072F049C02BF04BC073F04DC02CF009
:1003D0004FC074F051C02DF053C075F055C02EF0D1
:1003E00057C076F059C02FF05BC077F05DC030F099
:1003F000120EF66E020EF76E95DF2C0EF66E020EE2
:10040000F76E090E846F9FDF410E9EA8FED7AD6E7A
:100410000D0E9EA8FED7AD6E0A0E9EA8FED7AD6E3D
:100420003A0EF66E020EF76E090E846F8CDFEA6AE2
:10043000670EE96E98D70D0E9EA8FED7AD6E0A0E18
:100440009EA8FED7AD6E480EF66E020EF76E040E35
:10045000846F79DF70519EA8FED7AD6E4E0EF66E9A
:10046000020EF76E0A0E846F6EDF29509EA8FED72B
:10047000AD6E0D0E9EA8FED7AD6E0A0E9EA8FED7DD
:10048000AD6E5E0EF66E020EF76E040E846F5BDFCD
:1004900071519EA8FED7AD6E640EF66E020EF76E19
:1004A0000A0E846F50DF2A509EA8FED7AD6E0D0E47
:1004B0009EA8FED7AD6E0A0E9EA8FED7AD6E740E36
:1004C000F66E020EF76E040E846F3DDF72519EA829
:1004D000FED7AD6E7A0EF66E020EF76E0A0E846FC0
:1004E00032DF2B509EA8FED7AD6E0D0E9EA8FED714
:1004F000AD6E0A0E9EA8FED7AD6E8A0EF66E020E87
:10050000F76E040E846F1FDF73519EA8FED7AD6E89
:10051000900EF66E020EF76E0A0E846F14DF2C50EA
:100520009EA8FED7AD6E0D0E9EA8FED7AD6E0A0E2C
:100530009EA8FED7AD6EA00EF66E020EF76E040EEC
:10054000846F01DF74519EA8FED7AD6EA60EF66EC5
:10055000020EF76E0A0E846FF6DE2D509EA8FED7AF
:10056000AD6E0D0E9EA8FED7AD6E0A0E9EA8FED7EC
:10057000AD6EB60EF66E020EF76E040E846FE3DEFD
:1005800075519EA8FED7AD6EBC0EF66E020EF76ECC
:100590000A0E846FD8DE2E509EA8FED7AD6E0D0ECB
:1005A0009EA8FED7AD6E0A0E9EA8FED7AD6ECC0EED
:1005B000F66E020EF76E040E846FC5DE76519EA8AD
:1005C000FED7AD6ED20EF66E020EF76E0A0E846F77
:1005D000BADE2F509EA8FED7AD6E0D0E9EA8FED798
:1005E000AD6E0A0E9EA8FED7AD6EE20EF66E020E3E
:1005F000F76E040E846FA7DE77519EA8FED7AD6E0E
:10060000E80EF66E020EF76E0A0E846F9CDE305016
:100610009EA8FED7AD6E0D0E9EA8FED7AD6E0A0E3B
:100620009EA8FED7AD6EF80EF66E020EF76E7ADE5D
:1006300033EF04F0EA6A860EE96EEF500DE0060E25
:10064000016E006A002EFED7012EFBD77B0E006ED6
:10065000002EFED7EF2EF3D71200856B846B8553E7
:10066000D8A49BD084510408D8A097D07AA78ED064
:1006700094968B86240E9EA8FED7AD6E410E9EA842
:10068000FED7AD6E2C0E9EA8FED7AD6E310E9EA885
:10069000FED7AD6E2C0E9EA8FED7AD6E29509EA83B
:1006A000FED7AD6E2C0E9EA8FED7AD6E320E9EA864
:1006B000FED7AD6E2C0E9EA8FED7AD6E2A509EA81A
:1006C000FED7AD6E2C0E9EA8FED7AD6E330E9EA843
:1006D000FED7AD6E2C0E9EA8FED7AD6E2B509EA8F9
:1006E000FED7AD6E2C0E9EA8FED7AD6E340E9EA822
:1006F000FED7AD6E2C0E9EA8FED7AD6E2C509EA8D8
:10070000FED7AD6E2C0E9EA8FED7AD6E350E9EA800
:10071000FED7AD6E2C0E9EA8FED7AD6E2D509EA8B6
:10072000FED7AD6E2C0E9EA8FED7AD6E360E9EA8DF
:10073000FED7AD6E2C0E9EA8FED7AD6E2E509EA895
:10074000FED7AD6E2C0E9EA8FED7AD6E370E9EA8BE
:10075000FED7AD6E2C0E9EA8FED7AD6E2F509EA874
:10076000FED7AD6E2C0E9EA8FED7AD6E380E9EA89D
:10077000FED7AD6E2C0E9EA8FED7AD6E30509EA853
:10078000FED7AD6E2C0E9EA8FED7AD6EC80E866F3E
:1007900051DF842BD8B4852B62D77A9794968B96A9
:1007A00021EF05F0F86AD09E078EB886080EAF6E6E
:1007B000020EB06EA60EAC6E900EAB6E1C6A1D6A79
:1007C0001E6A300E296E2A6E2B6E2C6E2D6E2E6ECA
:1007D0002F6E306E319031923194666B3196319834
:1007E000319A319C319E7A917A937A957A977A9957
:1007F0007B6B7C6B7D6B7E6B7F6B806B816B836BAC
:10080000826BC150F00BC16E000E0F01386F396F53
:100810003A6F776A786A796A166A176A936A8A6A97
:10082000FF0E926ECF0E936EB80E946E000170D5CF
:10083000CD6ACC6A9D8AC00EF21293908A909392F0
:100840008A9293948A9493968A9693988A98939A84
:100850008A9A939C8A9C939E8A9E94968B9631A4A6
:10086000EBD0319494D5705131080FE131B60DD0F1
:10087000295031080AE193908A803186080E846FEE
:10088000FA0E866FD7DE842FFBD77051310808E14E
:1008900031A606D02950300803E193908A90319612
:1008A000715132080FE131B80DD02A5031080AE1F8
:1008B00093928A823188080E846FFA0E866FBADEB0
:1008C000842FFBD77151320808E131A806D02A5095
:1008D000300803E193928A923198725133080FE104
:1008E00031BA0DD02B5031080AE193948A84318AB1
:1008F000080E846FFA0E866F9DDE842FFBD772512F
:10090000330808E131AA06D02B50300803E1939454
:100910008A94319A735134080FE131BC0DD02C50B8
:1009200031080AE193968A86318C080E846FFA0E9C
:10093000866F80DE842FFBD77351340808E131AC19
:1009400006D02C50300803E193968A96319C74515E
:1009500035080FE131BE0DD02D5031080AE19398D2
:100960008A88318E080E846FFA0E866F63DE842FBC
:10097000FBD77451350808E131AE06D02D50300850
:1009800003E193988A98319E755136080FE17AB148
:100990000DD02E5031080AE1939A8A8A7A81080E86
:1009A000846FFA0E866F46DE842FFBD775513608AA
:1009B00008E17AA106D02E50300803E1939A8A9A72
:1009C0007A91765137080FE17AB30DD02F50310864
:1009D0000AE1939C8A8C7A83080E846FFA0E866FE4
:1009E00029DE842FFBD77651370808E17AA306D099
:1009F0002F50300803E1939C8A9C7A9377513808F2
:100A00000FE17AB50DD0305031080AE1939E8A8EFD
:100A10007A85080E846FFA0E866F0CDE842FFBD762
:100A20007751380808E17AA506D03050300803E144
:100A3000939E8A9E7A957A8794968B967AA701D010
:100A40000CD6040E846FFA0E866FF4DD842FFBD76C
:040A500006D70300C2
:020000040030CA
:0E00000000E2183C00BD81000FC00FE00F4071
:00000001FF
;PIC18F25K22
;CRC=AFC6  CREATED="05-Mar-26 10:54"
